:100293000D0A20457869742050726F6772616D0092
:10002600C100614E00000D0A2D2D2D2D2D2D6D6167
:10003600696E206D656E752D2D2D2D2D2D2D2D2D79
:100046002D2D2D2D2D2D0D0A2020202020696E709E
:10005600757420303A2020436F6E74726F6C204C9A
:10006600454430200D0A2020202020696E707574CA
:1000760020313A2020436F6E74726F6C204C4544D9
:1000860031200D0A2020202020696E7075742032E0
:100096003A2020436F6E74726F6C204C45443220B8
:1000A6000D0A2020202020696E70757420333A20B6
:1000B60020436F6E74726F6C204C454433200D0ADA
:1000C6002020202020696E70757420343A20204349
:1000D6006F6E74726F6C204C454434200D0A2020DC
:1000E600202020696E70757420353A2020436F6E8B
:1000F60074726F6C204C454435200D0A2020202058
:1001060020696E70757420363A2020436F6E7472C3
:100116006F6C204C454436200D0A20202020206993
:100126006E70757420373A2020436F6E74726F6C50
:10013600204C454437200D0A20202020206F74686B
:10014600657220203A2020457869742050726F67C6
:1001560072616D0D0A2D2D2D2D2D2D656E64206D70
:10016600656E752D2D2D2D2D2D2D2D2D2D2D2D2DF8
:040176002D2D2D00FE
:0802B0002000FD8F99D200220D
:10026E008B088A09890AAB08AA09A90A1200036039
:10027E0013050AE50A7002050914F9120003FF12AC
:05028E0002B080E22235
:030023000202A333
:0D02A300309802C298309902C299C2003210
:10020700E4F5E8759850758E14438E0175D7D87547
:10021700D6FFD2ACD2AF7B017A00790012026E30E2
:1002270098FDAE99BE3004B2E880F4BE3104B2E95D
:1002370080EDBE3204B2EA80E6BE3304B2EB80DF63
:10024700BE3404B2EC80D8BE3504B2ED80D1BE36E0
:1002570004B2EE80CABE3704B2EF80C37BFF7A02D6
:07026700799312026E80B8CA
:0300000002017B7F
:0C017B00787FE4F6D8FD7581200201C2F7
:10000300BB010689828A83E0225002E722BBFE02FB
:09001300E32289828A83E493222E
:10018700020207E493A3F8E493A34003F68001F285
:1001970008DFF48029E493A3F85407240CC8C33379
:1001A700C4540F4420C8834004F456800146F6DF48
:1001B700E4800B0102040810204080900026E47EB2
:1001C700019360BCA3FF543F30E509541FFEE4933D
:1001D700A360010ECF54C025E060A840B8E493A304
:1001E700FAE493A3F8E493A3C8C582C8CAC583CA2F
:1001F700F0A3C8C582C8CAC583CADFE9DEE780BEE7
:01017A000084
:00000001FF
