:1001F6000D0A2D2D626567696E2D2D2D2D2D0D0A8B
:10020600000D0A2D2D526563656976656420495295
:1002160020646174612069732D2D2D2D2D0D0A002A
:030226000D0A00BE
:0A027100C101040800000000C100F4
:10000300C28CAF8CEFFEAD8A7C00E42DFFEC3EFE8C
:0B00130022C28CE4F58AF58CD28C220E
:08004B002001FD8F99D2012272
:100026008B0C8A0D890EAB0CAA0DA90E1202296043
:1000360013050EE50E7002050D14F9120229FF12C2
:05004600004B80E222E6
:1002420012001430B607E58CC394EE40F612000398
:010252002289
:1002530012001420B607E58CC394EE40F612000397
:010263002278
:0300530002005652
:10005600C0E0C0D075D000C000C001C002C003C05F
:0700660004C005C006C0073D
:10006D00E4FFFEF9F58F120253C3EF94A0EE940F47
:10007D005003020102D3EF9488EE941350771202CD
:10008D0042C3EF94D0EE9407406BD3EF94C4EE943B
:10009D00095062E4FBD2B67900E4FA120253C3EFC1
:1000AD0094FAEE9400404ED3EF942CEE940150450B
:1000BD00120242D3EF94FAEE9400400EEF942CEE20
:1000CD0094015006E9C313F98018D3EF9420EE94F0
:1000DD00034022EF94E8EE9403501AE9C313F94359
:1000ED0001800ABA08B574082BF8A6010BBB04A54C
:0500FD00D200438F104A
:10010200D007D006D005D004D003D002D001D00051
:05011200D0D0D0E03266
:0300230002026472
:0D026400309802C298309902C299C201324E
:1001A300D2B6E4F5B1F5B2F589759850758E14435E
:1001B3008E01438F1075D7F375D6FFD2ACD2AF7BC8
:1001C300FF7A0179F61200263000FDC2007BFF7A28
:1001D300027907120026E4FE74082EF8E6FF1200E7
:1001E3004B0EBE04F37BFF7A027926120026438F5F
:0301F3001080D5A4
:03000000020117E3
:0C011700787FE4F6D8FD75812002015EBF
:10022900BB010689828A83E0225002E722BBFE02D3
:09023900E32289828A83E4932206
:100123000201A3E493A3F8E493A34003F68001F24E
:1001330008DFF48029E493A3F85407240CC8C333DD
:10014300C4540F4420C8834004F456800146F6DFAC
:10015300E4800B0102040810204080900271E47EC9
:10016300019360BCA3FF543F30E509541FFEE493A1
:10017300A360010ECF54C025E060A840B8E493A368
:10018300FAE493A3F8E493A3C8C582C8CAC583CA93
:10019300F0A3C8C582C8CAC583CADFE9DEE780BE4B
:01027B000082
:00000001FF
