:100E4D00B2E2C1BFBDBBC1F7D0C5BAC500252B31BC
:100E5D002E3466004D41583A20002056004D494E23
:090E6D003A20005054503A2000D4
:100E9B00C189022900000227000002250400022359
:050EAB00000A01220015
:03002B00020D249F
:100D2400C0E0C0F0C083C082C0D075D000C000C095
:100D340001C002C003C004C005C006C00753BCDF25
:100D4400AFBDEFFEADBE7C00E42DF52AEC3EF529E7
:100D5400E52264806044200941E52AAE297806CE64
:100D6400C313CE13D8F9FF74002522F582E43404AA
:100D7400F583EFF0D3E52A9528E5299527400685E4
:100D84002927852A28C3E52A9526E529952550068D
:100D9400852925852A2605228005752200D2091277
:100DA4000F45D007D006D005D004D003D002D0011F
:0D0DB400D000D0D0D082D083D0F0D0E0327B
:100A1200E4FDFF120F37E4FDFF120F3CD2A3120FC9
:100A2200257F01120F1A7F0F120F31D2ADD2AF12F2
:100A32000F41120F137F01120F2B120F45120EDD01
:100A42007BFF7A0E794DE4FDFF120EC7E4F54CF5FB
:100A52004BF54AF5497FC07E277D097C00AB4CAA45
:100A62004BA94AA849C312055C5017E54C2401F56D
:100A72004CE4354BF54BE4354AF54AE43549F54942
:100A820080D37F01120EF13009FD120EDD7550FF89
:100A920075510E75525AAC27AD28E41201D9E4FB08
:100AA200FA7920784012002EE4FBFA798078451218
:100AB20001378F568E558D548C537B007A00793FC7
:100AC2001205FF7550FF75510E75525AAC25AD26B1
:100AD200E41201D9E4FBFA7920784012002EE4FBFB
:100AE200FA798078451201378F568E558D548C5382
:100AF2007B007A0079351205FF7550FF75510E752E
:100B0200525AC3E5289526FDE5279525FCE41201F6
:100B1200D9E4FBFA7920784012002EE4FBFA7980BE
:100B220078451201378F568E558D548C537B007A3F
:100B320000792B1205FFE4F527F528752510F52617
:100B42007BFF7A0E79617D01FF120EC77B007A006E
:100B5200793F7D017F02120EC77BFF7A0E79677D96
:100B6200017F05120EC77BFF7A0E796A7D02E4FFD0
:100B7200120EC77B007A0079357D027F02120EC702
:100B82007BFF7A0E79677D027F05120EC77BFF7AA3
:100B92000E79707D03E4FF120EC77B007A00792B79
:100BA2007D037F02120EC77BFF7A0E79677D037F7A
:100BB20005120EC7E4F54CF54BF54AF5497FE07E88
:100BC200937D047C00AB4CAA4BA94AA849C31205E9
:100BD2005C5017E54C2401F54CE4354BF54BE435FC
:100BE2004AF54AE43549F54980D37F01120EF17B7B
:0D0BF200017A047900120BFFC209020A8982
:050F37008F948D932250
:050F3C008F968D952247
:060F2500E4F5BDF5BE225B
:040F410075BC8022D9
:040F450043BC402247
:060F0D00C2A68F80D2A7EE
:070F130000000000000022B5
:060F2B00EF540F42BC224E
:0B0F1A00EF700453DEDF2243DE2022D4
:060F3100EF540F42DE2226
:100EB1007580FF120F13C2A5D2A6D2A7E58020E745
:060EC100FBC2A7020F13A3
:0E0EF100120EB1120F13C2A5120F0DC2A722CE
:0E0EFF00120EB1120F13D2A5120F0DC2A722B0
:100EDD007F38120EF17F06120EF17F01120EF17F97
:040EED000C020EF1F4
:100E7600ED7006EF2480FE8015BD0106EF2490FE7E
:100E8600800CEFBD02052488FE80032498FEEE4404
:050E960080FF020EF1D7
:100EC700120E761204F6FF600C120EFF740129F958
:060ED700E43AFA80EE226D
:060BFF008B4D8A4E894F68
:100C0500E4F550E4F55175F040E550A42400F58273
:100C1500E5F03400F583E5822551F582E43583F569
:100C250083E4F00551E551B440DC0550E550B410BE
:100C3500D2E4F550E5505407FF7480A807088002F8
:100C4500C313D8FCFFAB4DAA4EA94F8550827583BF
:100C55000012050FFEE550131313541F75F040A441
:100C65002400F582E5F03400F583E5822EF582E473
:100C75003583F583EFF00550E550B480B7E4F550C2
:100C8500F551E550C39409505AE4FE7F34120EF134
:100C9500EE2480FF120EF1E5502480FF120EF17F45
:100CA50030120EF1E4FDE551FBEE2BFBE433FA7552
:100CB500F040EDA42400F582E5F03400F583E582EB
:100CC5002BF582E5833AF583E0FF120EFF0DBD108B
:100CD500D50EBE20B674082550F55074202551F563
:100CE50051809F7F36120EF1E4F555F554F553F515
:100CF500527F207EA17D077C00AB55AA54A953A83D
:100D050052C312055C5017E5552401F555E43554D9
:0E0D1500F554E43553F553E43552F55280D3CE
:010D230022AD
:10002E00EC4D6011E8497017ED33EC3304600DE4CC
:10003E00FCFFFEFD22E933E8330470F8020247129A
:10004E00021258046009E4CC24815006285009029B
:10005E00025128400302024EC0E0EB4A7044B980C0
:10006E0006D0E0FB02023DEF4E701CBD8008EBFF98
:10007E00EAFEE9FD80EBE98DF0A4FEE5F002011742
:10008E00E9CDF9EAFEEBFFEF89F0A4FCE5F0CE89AD
:10009E00F0A42EFFE435F0CD89F0A42DFEE435F06A
:1000AE008067EF4E7005BD80D780C3EF8BF0A4AC98
:1000BE00F0EE8BF0A42CFCE435F0F8EF8AF0A42CD3
:1000CE00E5F038FCE433CB8DF0A42CFCE5F03BF8E6
:1000DE00EE8AF0A42CFCE5F038F8E433CF89F0A4D6
:1000EE002CFCE5F038CF3400CE89F0A42FFFE5F0DC
:1000FE003EFEE433C98DF0A42EFEE5F039CD8AF034
:10010E00A42FFFE5F03EFEE43DFD33D0E0FB5007AB
:10011E000BBB000F020251EC2CFCEF33FFEE33FE53
:06012E00ED33FD02022981
:10013400020251EC5D046005E859047003020247B1
:10014400120212580460F6EC4860F2EC7004FDFEF2
:10015400FF22C860DB2481C85009C398600250069E
:1001640002024E9850CAF582E9294B4A7005AB82C7
:1001740002023D75F0007C1A7880C3EF9BEE9AED85
:1001840099400DC3EF9BFFEE9AFEED99FDE842F016
:10019400DC23ACF0D0E0FFD0E0FED0E0FDAB822069
:1001A400E7101BEB60BAEC2CFCEF33FFEE33FEEDF3
:1001B40033FD020229E803F830E705C0F075F000CA
:1001C400EF2FFFEE33FEED33FD40B830E7C280AAD7
:1001D40075F020800E75F010800575F0087D007EA6
:1001E400007F003392D530D50312054EEC33401016
:1001F400EF33FFEE33FEED33FDEC33FCD5F0ED22AF
:0E020400E5F0247EA2D513CC92E7CDCEFF22EA
:1005A300E5642450F8E6056422784D30070278505C
:1005B300E475F00112056D0204F62000EB7F2ED2E4
:1005C300008018EF540F2490D43440D4FF30040B30
:1005D300EF24BFB41A0050032461FFE565600215E0
:1005E300650568E5687002056730070D784DE475A9
:1005F300F00112056DEF02053C0200037403D207FC
:100603008003E4C207F5648B4D8A4E894FE4F56598
:10061300F567F568E56560077F201205DE80F575EF
:1006230066FFC201C200C202C203C205C206C208FB
:100633001205ACFF700D3007057F001205EFAF68A0
:10064300AE6722B4255FC2D5C2041205ACFF24D025
:10065300B40A00501A75F00A786530D50508B6FF5C
:100663000106C6A426F620D5047002D20380D9243D
:10067300CFB41A00EF5004C2E5D2040208DCD20161
:1006830080C6D20080C0D20280BCD2D580BAD20547
:1006930080B47F201205DE2002077401B565004097
:1006A300F11205A3FF1205DE020617D208D2068057
:1006B300951205A3FB1205A3FA1205A3F94A4B7081
:1006C3000679D37A097BFF20022EE565602A7E0036
:1006D3008E8275830012050F60060EEE656670F05C
:1006E300C2D5EBC0E0EAC0E0E9C0E0EE12093CD0BD
:1006F300E0F9D0E0FAD0E0FB1204F6FF60AAEBC009
:10070300E0EAC0E0E9C0E01205DED0E02401F9D060
:10071300E03400FAD0E0FBE5660460DCD566D980FE
:1007230087D20280A212091F60F7E56670010412E6
:10073300025CA966600DE566600914F5661209C6D8
:10074300EF60F3EA30E702F404C3995077EAF42543
:10075300660430E701E404F566800D12091F60C1E9
:10076300EA0566256612025CEA7863F630E701E47F
:10077300256604D566042005011412093CE4C0E093
:100783001209C67863E6601320E70714F61205C65C
:10079300802204F6D0E014C0E07F001205C6E566AF
:1007A30060071205BD1566800B3005031205BDD029
:1007B300E0020617D0E00480C512091F60A0E566B9
:1007C3000412025C7863EAF6E56620050260010420
:0507D300240412093CA2
:1007D80074FF04C0E01209C61205C6E566200502CA
:1007E80060031205BDD0E0B566E87F451205D078F4
:1007F80063E67F2B30E7047F2DF404C0E01205DEAA
:10080800D0E075F00A84C0F01205C7D0E01205C721
:10081800020617791080027908C206C2088008D239
:10082800D5790A8004790AC2D5E566047002F566AE
:10083800E4FAFDFEFF1205A3FC7B08200113120554
:10084800A3FD7B1030000A1205A3FE1205A3FF7B4F
:1008580020EC3382D592D55013C3E43000069FFFB5
:10086800E49EFEE42001039DFDE49CFCE4CBF8C279
:1008780001EC700CCFCECDCCE824F8F870F38017DB
:10088800C3EF33FFEE33FEED33FDEC33FCEB33FB0C
:10089800994002FB0FD8E9EB300105F8D0E0C448D5
:1008A800B201C0E00AEC4D4E4F78207B0070C2EADE
:1008B800B5660040BCC0E012093ED0F0D0E020018F
:1008C80004C4C0E0C4B201C0F01205C7D0F0D5F02E
:1008D800EB02061712057D06B453081B5806854C13
:1008E800068142081F4F082744082749069A4308EB
:1008F8002D55075E4607BC4507284709F35006896A
:100908002D068D2E06B02B06912306AE2009DC2A73
:10091800064948000006A8E566B4FF037566061296
:1009280005A3FC1205A3FD1205A3FE1205A3FF787B
:100938005C02028B790AA2D5200314300509B9108C
:10094800020404B9080104A2D520060250010420BB
:1009580002689202B565005034C0E07F2030031968
:100968007F30A20272067205500F120995C202C2A8
:1009780006C205C2087F30800F300503E9C0E012C7
:1009880005DE300503D0E0F9D0E0B565CC300517B9
:100998007F30B9100C1205DE7F583004077F78804D
:1009A80003B908031205DE3002057F2D0205DE7F3C
:1009B800202008F87F2B2006F322920280CF7F00A8
:1009C800B407005005245CF8E6FF22286E756C6CAD
:1009D8002900D2011205A33001F8C201786530D58B
:1009E8000108F60206492D504349581205A324036D
:1009F800B405004001E49009EE931205CF743A1251
:0A0A080005CFD20375650402081B38
:10021200E9D2E7C933E833F892D5EDD2E7CD33EC32
:0702220033FC5002B2D522AB
:10022900EC30E7100FBF000C0EBE00080DBD000436
:100239000BEB6014A2D5EB13FCED92E7FD2274FFE2
:10024900FCFDFEFF22E480F8A2D574FF13FC7D803B
:03025900E480EF4F
:10025C00F920E72824F950037907E4F42402FB1869
:10026C00DBFDE624FB5014E9600DE4F618E604F619
:0F027C00B40A08E4F6D9F57401F60A22C2D522B5
:10028B00ED33EC3392D5FA602AB4FF33EDC2E77B42
:10029B00FF60067A0279B0E4227A0279B920D5049C
:1002AB007A0279B4224E614E002B494E46002D49FD
:1002BB004E4600E47A08F608DAFC7B00740722E865
:1002CB00C0E0ECC0E0EDC0E0EEC0E0EFC0E0EA75EE
:1002DB00F010A4CAABF075F04DA42BFBE435F0FC89
:1002EB00EA2410FAEB34C5FBEC34D9FCEDC2E7FF82
:1002FB0075F056A4F42411C5F0F434C58FF0A42A7C
:10030B00E5F03BE43CF620E7141204B6D0E0FFD056
:10031B00E0FED0E0FDD0E0FC1201378014F40412B3
:10032B0004B6D0E0FFD0E0FED0E0FDD0E0FC120040
:10033B002ED0E0F8E6FAEDD2E7CD33EC332482FB96
:10034B00E4C3CF33CFCE33CECD33CD33DBF37B070B
:10035B0075F00A846004F6081B0AE5F0F6088FF0C6
:10036B00740AA4FFACF08EF0740AA42CFEACF0500F
:10037B00010C8DF0740AA42CFDE435F0F608DBDEDD
:03038B00740722D2
:10038E00020247E86480F8E933E83360110460F054
:10039E00ED33EC337009E8FCE9FDEAFEEBFF2204D5
:1003AE0060DED3EB9FEA9EE99DE8C2E78CF0C2F7D0
:1003BE0095F0400CE8CCF8E9CDF9EACEFAEBCFFB9C
:1003CE0012021285D0F05804700320D5B3E80470E1
:1003DE00075002B2D502025192D5EC0460F7E4CC7C
:1003EE00C0E0C398F8603B94186008400DD0E0FB65
:1003FE00020229E4FBFAC9FC8028E830E406E4C9CD
:10040E00FBE4CAFCE830E305E4C9CACBFCE85407B8
:10041E006010F8C3E913F9EA13FAEB13FBEC13FCC3
:10042E00D8F130F52FC3E49CFCEF9BFFEE9AFEED66
:10043E0099FDD0E0FBEF4E4D4C701222DB03020211
:10044E004EEC2CFCEF33FFEE33FEED33FDED30E7DB
:10045E00EB020229EF2BFFEE3AFEED39FDD0E0FB69
:10046E0050130BBB0003020251ED13FDEE13FEEF12
:08047E0013FFEC13FC0202293C
:100486003F8000004120000042C80000447A00007E
:10049600461C400047C35000497424004B18968000
:1004A6004CBEBC205A0E1BCA6753C21C749DC5AEF7
:1004B600FB60065407601C23231204E4EB543860E7
:1004C600091204D01204DF12002EECF8EDF9EEFA50
:1004D600EFCB22EB1204DF80F1543803241C900486
:1004E60086FE93FC0EEE93FD0EEE930ECE93FF2248
:03000000020DC12D
:0C0DC100787FE4F6D8FD758168020E080A
:1004F600BB010689828A83E0225002E722BBFE0204
:09050600E32289828A83E4932236
:10050F00BB010CE58229F582E5833AF583E02250A1
:10051F0006E92582F8E622BBFE06E92582F8E222EB
:0D052F00E58229F582E5833AF583E4932205
:10053C00BB010689828A83F0225002F722BBFE019E
:02054C00F32298
:0E054E00C3E49FFFE49EFEE49DFDE49CFC22BE
:10055C00EB9FF5F0EA9E42F0E99D42F0E89C45F0F5
:01056C00226C
:10056D00FAE6FB0808E6F925F0F618E6CA3AF6228F
:10057D00D083D082F8E4937012740193700DA3A30D
:10058D0093F8740193F5828883E473740293686021
:06059D00EFA3A3A380DF21
:10000300EFB40A07740D12000E740A309811A89900
:10001300B8130CC2983098FDA899C298B811F6305D
:0700230099FDC299F5992235
:100DCD00020A12E493A3F8E493A34003F68001F220
:100DDD0008DFF48029E493A3F85407240CC8C33327
:100DED00C4540F4420C8834004F456800146F6DFF6
:100DFD00E4800B0102040810204080900E9BE47EDD
:100E0D00019360BCA3FF543F30E509541FFEE493EA
:100E1D00A360010ECF54C025E060A840B8E493A3B1
:100E2D00FAE493A3F8E493A3C8C582C8CAC583CADC
:100E3D00F0A3C8C582C8CAC583CADFE9DEE780BE94
:010EB0000041
:00000001FF
