:10000300E4F50BF50AF509F50875B40175B301E4D8
:10001300F5E8F5C0F50BF50AF509F508E4FF7E8070
:10002300FDFCAB0BAA0AA909A808C312008C501B3C
:10003300E4FAF9F8E50B2401F50BEA350AF50AE9C8
:100043003509F509E83508F50880D175E8FF75C06D
:10005300FFE4F50BF50AF509F508E4FF7E80FDFCE6
:10006300AB0BAA0AA909A808C312008C50A1E4FA91
:10007300F9F8E50B2401F50BEA350AF50AE9350928
:09008300F509E83508F50880D103
:030000000200A259
:0C00A200787FE4F6D8FD75810B020003A6
:10008C00EB9FF5F0EA9E42F0E99D42F0EC6480C8EB
:06009C0064809845F0228B
:00000001FF
