:1017FE0090FFFD1203DFEBF0A3EAF0A3E9F08508FA
:10180E0083850982E0F9A3E0FAA3E08508838509C0
:10181E0082C9F0A3EAF0A3E9F0D2B220B26C90FF35
:10182E00FE1203DFE4F0A37414F07B007D007F0052
:10183E00120BB120B25443E80F20B24620B21790DB
:10184E00FFFE1203DFE4F0A37414F07B007D007F33
:10185E0000120BB180E690FFFE1203DFE4F0A374DA
:10186E0014F07B007D007F00120BB190FFFE12037F
:10187E00DFE4F0A37414F07B007D007F00120BB147
:10188E0080B77FFF12119853E8F090FFFE1203DF2E
:10189E00E4F0A37414F07B007D007F00120BB10204
:0218AE001827F9
:1018B00090FFFD1203DFEBF0A3EAF0A3E9F0850847
:1018C00083850982E0F9A3E0FAA3E085088385090E
:1018D00082C9F0A3EAF0A3E9F0D2B320B36C90FF81
:1018E000FE1203DFE4F0A37414F07B007D007F00A0
:1018F000120BB120B3547F051215A043E8F020B3BA
:101900004620B31790FFFE1203DFE4F0A37414F037
:101910007B007D007F00120BB180E690FFFE12037A
:10192000DFE4F0A37414F07B007D007F00120BB1A4
:1019300090FFFE1203DFE4F0A37414F07B007D003F
:101940007F00120BB180B753E80F90FFFE1203DF48
:10195000E4F0A3741EF07B007D007F00120BB10247
:0219600018D994
:101E6D001209A7121F6290FFFF1203DF7404F07BAB
:101E7D00017A0179B290FFFD1203DFEBF0A3EAF0D6
:101E8D00A3E9F07B007A00790090FFFD1203DFEBF0
:101E9D00F0A3EAF0A3E9F07BFF7A1E79B0120F13DD
:031EAD00021BFE17
:101EB00090FFFD1203DFEBF0A3EAF0A3E9F0850841
:101EC00083850982E0F9A3E0FAA3E0850883850908
:101ED00082C9F0A3EAF0A3E9F0D2A9121F7112009F
:101EE00003121B8A121BFE7FFF121198900003023F
:021EF00003DF0E
:101B8A0090FFFF1203DF7405F07B017A0079E89079
:101B9A00FFFD1203DFEBF0A3EAF0A3E9F07B007A82
:101BAA0000790090FFFD1203DFEBF0A3EAF0A3E94E
:101BBA00F07BFF7A1779FE120F1390FFFF1203DFF3
:101BCA007406F07B017A01794D90FFFD1203DFEB79
:101BDA00F0A3EAF0A3E9F07B007A00790090FFFD18
:101BEA001203DFEBF0A3EAF0A3E9F07BFF7A18799E
:041BFA00B0020F1313
:0E1F7100E4F5B2F5B1F5CCF5CBD2E8D2E92219
:0100030022DA
:03000000021F508C
:101F500078FEE4F6D8FD75080F75090075813D021D
:021F60001E6DF4
:101CD50090FFFD1203DFEBF0A3EAF0A3E9F090FF1C
:041CE500FE1203DF09
:101CE900C2AF850883850982A3A3E0FBA3E0FAA319
:101CF900E0F99000021200B4FF850883850982E5A6
:101D0900F0F0A3EFF0850883850982E0FEA3E0FFE8
:101D1900D39400EE9400400A90000274FFF5F0128B
:041D290000ECD2AF49
:061D2D009000050203DF37
:10173D0090FFFE1203DFEEF0A3EFF090FFFD12031A
:01174D00DFBC
:10174E007816E6D3940040097B007A0079000217E0
:10175E00F8C2AF900080E0F9A3E0FAA3E085088319
:10176E00850982C9F0A3EAF0A3E9F0900080E0FBBE
:10177E00A3E0FAA3E04A4B6018900080A3A3E0F91F
:10178E00900004120356900080EBF0A3EAF0A3E958
:10179E00F0D2AF850883850982E0FBA3E0FAA3E0CF
:1017AE004A4B6038850883850982E0FBA3E0FAA3E3
:1017BE00E0F97403120054900003120403E0FEA338
:1017CE00E0FF850883850982E0FBA3E0FAA3E0F938
:1017DE00900002EE8FF0120139121D3385088385B9
:0A17EE000982E0FBA3E0FAA3E0F992
:0617F8009000050203DF72
:10106C0090FFFE1203DFECF0A3EDF090FFFD1203F6
:10107C00DFEBF0A3EAF0A3E9F07816E6D394004096
:10108C0013900005120403E0FBA3E0FAA3E0F9744B
:10109C000202118FC2AF850883850982E0FBA3E0B1
:1010AC00FAA3E0F99000021200B4D39400E5F09496
:1010BC0000401E90000274FFF5F01200ECD2AF90CD
:1010CC000005120403E0FBA3E0FAA3E0F9E402112B
:1010DC008F7813860308E6FA08E6240EF9E43AFA48
:1010EC0012000E4401120054900003120403E0FE9F
:1010FC00A3E0FF7813860308E6FA08E6F990000CE3
:10110C00EE8FF0120139850883850982E0FBA3E09C
:10111C00FAA3E0F91213ADD2AF121A90C2AF781342
:10112C00860308E6FA08E6F990000E12002730E074
:10113C0025850883850982E0FBA3E0FAA3E0F91278
:10114C001671D2AF900005120403E0FBA3E0FAA3E2
:10115C00E0F9740A802D7B007A007900C003C0028C
:10116C00C0017813860308E6FA08E6F99000091224
:10117C000386D2AF900005120403E0FBA3E0FAA3B0
:0C118C00E0F9E41200549000080203DFB8
:1019620090FFFD1203DFEBF0A3EAF0A3E9F0C2AFB0
:10197200850883850982E0FBA3E0FAA3E0F99000E1
:1019820001120027603790FFFF1203DF7401F07B22
:10199200007A00790090FFFD1203DFEBF0A3EAF07A
:1019A200A3E9F0900004120403E0FBA3E0FAA3E031
:1019B200F9120D76D2AF121A907F00804885088303
:1019C200850982E0FBA3E0FAA3E0F990000212008D
:1019D200B4FFAEF0E4FCFD7BFF7AFFF9F8D312020C
:1019E20083401E850883850982E0FBA3E0FAA3E019
:1019F200F9900002E475F0011200ECD2AF7F008092
:0B1A020004D2AF7F329000030203DF2C
:101D8E001200067813088683088682A3E0F8A3E083
:101D9E00F988838982E0FD783EA308E0F6DDFA88B3
:101DAE0081A3E0F508A3E0F509780B7601D0E0FFFA
:101DBE00D0E0FED0E0FDD0E0FCD0E0FBD0E0FAD0E9
:101DCE00E0F9D0E0F8D0D0D082D083D0F0D0E0D2FD
:021DDE00AF3222
:101C6F00C0E0C0F0C083C082C0D0E8C0E0E9C0E0EF
:101C7F00EAC0E0EBC0E0ECC0E0EDC0E0EEC0E0EFAA
:101C8F00C0E0E581C3943EFD781308868308868201
:101C9F00A3E0F8A3E0F988838982EDF0783EA308EA
:101CAF00E6F0DDFAA3E508F0A3E509F012000678E7
:101CBF00137917E7F60809E7F60809E7F6783C798C
:061CCF003DE7F6021D9145
:0A1F8D00E581C39404F581021C9164
:101A0D0090FFFE1203DFEEF0A3EFF085088385094A
:101A1D0082E0FEA3E0FFD39400EE9400405FC2AFDE
:101A2D007813860308E6FA08E6F9900011120027EC
:101A3D0024E7F582E43400F583C083C082E0FD78AD
:101A4D0013860308E6FA08E6F9900012120027F44F
:101A5D00FCED5CD082D083F0700B90001312002748
:101A6D00F4780A56F67813860308E6FA08E6F99034
:101A7D00000CEE8FF0120139D2AF121A90900002C5
:031A8D000203DF72
:100BB10090FFFF1203DFEBF090FFFF1203DFEDF078
:0E0BC10090FFFF1203DFEFF090FFFA1203DF48
:100BCF00900006120403E0D39400502D90000712FA
:100BDF000403E0D394005021900008120403E0D3E3
:100BEF0094005015900009120403E0FEA3E0D39483
:100BFF0000EE94005003020D6E900007120403E004
:100C0F00FED3943B40057F51020D709000081204F3
:100C1F0003E0D3943B40057F52020D709000091200
:100C2F000403E0FCA3E0D394E7EC940340057F5367
:100C3F00020D70EEFF7E007C007D3C120410C0049C
:100C4F00C005C006C007900006120403E0FF7E0037
:100C5F007C0E7D10120410D003D002D001D000EF13
:100C6F002BFBEE3AFAED39F9EC38F8900008120444
:100C7F0003E0FFE4FCFDFEEB2FFFEE3AFEED39FD46
:100C8F00EC38FCE47B32FAF9F8120166C004C005B7
:100C9F00C006C007900009120403E0FEA3E0FFEFB7
:100CAF00240AFFE43EFEE433FDE433FCE47B32FA36
:100CBF00F9F8120166E47BE87A03F9F81201F1D032
:100CCF0003D002D001D000EB2FFFEA3EFEE93DFD3D
:100CDF00E83CFC8508838509821202B1E4FBFA79AE
:100CEF0001F8850883850982E0FCA3E0FDA3E0FEFF
:100CFF00A3E0FF1201F1900004120403EEF0A3EF42
:100D0F00F0850883850982C083C082A3A3E0FEA378
:100D1F00E0FFE4FDFCD082D0831202B18508838509
:100D2F000982A3A3E0FEA3E0FF121A0D90000412A4
:100D3F000403E0FEA3E0D39400EE9400401D7E80F8
:100D4F007F00121A0D7E807F00121A0D9000041280
:100D5F00040374FFF5F012008880D17F0080027FBA
:010D6F00542F
:060D700090000B0203DFFE
:100F130090FFFD1203DFEBF0A3EAF0A3E9F090FFEB
:040F2300FC1203DFDA
:100F2700C2AF90000D120403E0FF75F003A4241A6A
:100F3700F8860308E6FA08E64A4B6003021062EFF8
:100F470075F003A4241AF87600087600087601D213
:100F5700AF90FFFE1203DFE4F0A3F090000C120441
:100F670003E0FBA3E0FAA3E0F990FFFD1203DFEB38
:100F7700F0A3EAF0A3E9F090000C120403E0FBA34E
:100F8700E0FAA3E0F990FFFD1203DFEBF0A3EAF02C
:100F9700A3E9F090000C120403E0FBA3E0FAA3E03E
:100FA700F9120744850883850982EBF0A3EAF0A3C9
:100FB700E9F090FFFE1203DFE4F0A3F0FBFAF990EB
:100FC700FFFD1203DFEBF0A3EAF0A3E9F090FFFCCB
:100FD7001203DF1202D60000000090FFFE1203DFAB
:100FE700E4F0A3F0FBFAF990FFFD1203DFEBF0A3A7
:100FF700EAF0A3E9F090000E120403E0FBA3E0FA85
:10100700A3E0F990001B120403E0FF12047F900095
:1010170003120403EFF0900003120403E07012C2FE
:10102700AF783B06D2AF780BE6B40125121A908051
:1010370020C2AF7B007A00790090000D120403E014
:1010470075F003A4241AF8A60308A60208A601D27D
:0F105700AF900003120403E0FF8004D2AF7F28A4
:0610660090000E0203DF02
:0E15A00090FFFF1203DFEFF090FFFD1203DF5C
:1015AE00C2AF900003120403E075F003A4241AF8EE
:1015BE00860308E6FA08E6F9850883850982EBF0CA
:1015CE00A3EAF0A3E9F04A4B7007D2AF7F6402168C
:1015DE006B850883850982E0FBA3E0FAA3E0F9900E
:1015EE00000E12002730E371E9240EF9E43AFA12E4
:1015FE00000E54F7120054705A850883850982E054
:10160E00FBA3E0FAA3E0F990000C1200B445F070D1
:10161E0042900013120027780A46F690001112002D
:10162E002724E7F582E43400F583C083C082E0FF0F
:10163E00850883850982E0FBA3E0FAA3E0F9900018
:10164E0012120027FEEF4ED082D083F0D2AF121AC4
:0D165E00908002D2AF7F008004D2AF7F6584
:06166B009000040203DF01
:0E11980090FFFF1203DFEFF090FFFC1203DF69
:1011A600C2AF900004120403E0FFB4FF1B7813865D
:1011B6000308E6FA08E6F990000F120027FE9000F1
:1011C60004120403EEF080137813860308E6FA0887
:1011D600E6F990000F120027B5070B8508838509ED
:1011E600827401F08008850883850982E4F0900006
:1011F60004120403E075F003A4241AF8860308E633
:10120600FA08E6F9850883850982A3EBF0A3EAF0DC
:10121600A3E9F04A4B7006D2AF7F5A807C850883DB
:10122600850982A3E0FBA3E0FAA3E0F9900011127E
:10123600002724E7F582E43400F583C083C082E00A
:10124600FF850883850982A3E0FBA3E0FAA3E0F902
:10125600900012120027F4FEEF5ED082D083F07069
:101266000B900013120027F4780A56F6850883853A
:101276000982A3E0FBA3E0FAA3E0240EF9E43AFA1C
:1012860012000E4408120054D2AF850883850982E5
:09129600E0B40103121A907F007C
:06129F009000050203DFD0
:1007440090FFFD1203DFEBF0A3EAF0A3E9F090FFC2
:04075400FD1203DFB0
:10075800900006120403E0FBA3E0FAA3E0F990007E
:1007680006120403EBF0A3EAF0A3E9F090000C12E0
:100778000403E0FEA3E0FF90000C120403EEF0A3D4
:10078800EFF0900009120403E0F9A3E0FAA3E08572
:100798000883850982C9F0A3EAF0A3E9F0850883F4
:1007A800850982E0FBA3E475F00112009EA9F0FA26
:1007B800740F120054900003120403A3A3E0FF85F2
:1007C8000883850982E0FBA3E475F00112009EA965
:1007D800F0FAEF120054900003120403A3E0FAEABF
:1007E800FF850883850982E0FBA3E475F001120008
:1007F8009EA9F0FAEF120054850883850982E0FB70
:10080800A3E475F00112009EA9F0FA740A120054CC
:10081800850883850982E0FBA3E475F00112009E38
:10082800A9F0FA740B120054850883850982E0FB4D
:10083800A3E475F00112009EA9F0FAE412005485B1
:100848000883850982E0FBA3E475F00112009EA9E4
:10085800F0FAE4120054850883850982E0FBA3E4DA
:1008680075F00112009EA9F0FAE41200548508837D
:10087800850982E0FBA3E475F00112009EA9F0FA55
:10088800E4120054900006120403A3A3E0FF8508B5
:1008980083850982E0FBA3E475F00112009EA9F0AC
:1008A800FAEF120054900006120403A3E0FAEAFFDC
:1008B800850883850982E0FBA3E475F00112009E98
:1008C800A9F0FAEF120054850883850982E0FBA39A
:1008D800E475F00112009EA9F0FA74011200548523
:1008E8000883850982E0FBA3E475F00112009EA944
:1008F800F0FA7404120054850883850982E0FBA38A
:10090800E475F00112009EA9F0FA740512005485EE
:100918000883850982E0FBA3E475F00112009EA913
:10092800F0FA7406120054850883850982E0FBA357
:10093800E475F00112009EA9F0FA740712005490B1
:100948000009120403A3E0FAA3E02464E43AFF8553
:100958000883850982E0FBA3E475F00112009EA9D3
:10096800F0FAEF120054900009120403A3A3E02444
:1009780064F9AF01850883850982E0FBA3E475F07B
:100988000112009EA9F0FAEF120054900009120417
:0909980003E0FBA3E0FAA3E0F97F
:0609A10090000E0203DFCE
:0100040022D9
:0100050022D8
:101EF20090FFFD1203DFEBF0A3EAF0A3E9F08508FF
:101F020083850982E0F9A3E0FAA3E08508838509C5
:0F1F120082C9F0A3EAF0A3E9F09000030203DF15
:0100060022D7
:101F210090FFFD1203DFEBF0A3EAF0A3E9F08508CF
:101F310083850982E0F9A3E0FAA3E0850883850996
:0F1F410082C9F0A3EAF0A3E9F09000030203DFE6
:0100070022D6
:0100080022D5
:091F9700758C63758AC0D28C229E
:03000B00021E29A9
:101E2900C0E0C0F0C083C082C0D075D000C000C07F
:101E390001C002C003C004C005C006C007121F7F4D
:101E4900121F971214B1121B10D007D006D005D05B
:101E590004D003D002D001D000D0D0D082D083D01A
:041E6900F0D0E032A3
:0F1F6200538E7F5389F0758C63758AC0D28C22A1
:1012A5000102040810204080000001000200010036
:1012B500030001000200010004000100020001001A
:1012C5000300010002000100050001000200010009
:1012D50003000100020001000400010002000100FA
:1012E50003000100020001000600010002000100E8
:1012F50003000100020001000400010002000100DA
:1013050003000100020001000500010002000100C8
:1013150003000100020001000400010002000100B9
:1013250003000100020001000700010002000100A6
:101335000300010002000100040001000200010099
:101345000300010002000100050001000200010088
:101355000300010002000100040001000200010079
:101365000300010002000100060001000200010067
:101375000300010002000100040001000200010059
:101385000300010002000100050001000200010048
:101395000300010002000100040001000200010039
:0813A500030001000200010039
:0609A70090FFF51203DFD2
:1009AD00120004E47816F6780CF6783BF6780BF620
:1009BD0078371202BD0000000078331202BD00002E
:1009CD000000E4780AF6850883850982A3A304F064
:1009DD00A37400F0A374E7F0850883850982E4F021
:1009ED00A3F0850883850982E0FEA3E0C39401EEA0
:1009FD0094005027850883850982A3A3E0FBA3E417
:100A0D0075F00112009EA9F0FAE4120054850883D6
:100A1D0085098275F00112008880C7E4783CF608DC
:100A2D00F67817F608F608F67813F608F608F6784D
:100A3D000DF608F608F6850883850982F0A3F08582
:100A4D000883850982E0FEA3E0FFC39408EE9400BD
:100A5D00501FEF75F003A4241AF8760008760008ED
:100A6D007600850883850982E475F001120088807F
:100A7D00CE7B017A007900900005120403EBF0A300
:100A8D00EAF0A3E9F07B017A0079149000081204D2
:100A9D0003EBF0A3EAF0A3E9F0850883850982E46E
:100AAD00F0A3F0850883850982E0FEA3E0C39405D9
:100ABD00EE94005053900008120403E0FBA3E0FAFB
:100ACD00A3E0F9C003C002C001900005120403E0C9
:100ADD00FBA3E0FAA3E0F990000312038690000552
:100AED00120403A3E475F014120088900008120498
:100AFD0003A3E475F014120088850883850982E448
:100B0D0075F001120088809B7B007A007900C0038C
:100B1D00C002C001900005120403E0FBA3E0FAA39C
:100B2D00E0F990000312038678107601087600082C
:100B3D0076007B017A007978900080EBF0A3EAF0E3
:100B4D00A3E9F0E41200541BFAF9C003C002C0017E
:100B5D00900080E0FBA3E0FAA3E0F99000041203FB
:100B6D008690FFFF1203DF7407F07B017A00798313
:100B7D0090FFFD1203DFEBF0A3EAF0A3E9F07B0099
:100B8D007A00790090FFFD1203DFEBF0A3EAF0A3EA
:0E0B9D00E9F07BFF7A1D79E0120F13120005BC
:060BAB0090000B0203DFC5
:0E1F7F00C2AF7816E6C394FF500106D2AF221F
:101B1000C2AF7816E6D394004001167816E67067D7
:101B2000780CE67062780AE69012AD937832F6E6A9
:101B3000FF24E7F582E43400F583E09012AD93FED4
:101B4000EF33333354F8FFEE2FFF783DF618E66F8E
:101B5000603508E675F003A4241AF8860308E6FA4F
:101B600008E6F97817A60308A60208A6017833123A
:101B70000299EF2401FFE43EFEE43DFDE43CFC78E5
:0A1B8000331202A5121F8DD2AF220E
:061BFE0090FFFE1203DF60
:101C0400780BE6706018E69012AD93850883850919
:101C140082F0E0FF24E7F582E43400F583E09012DB
:101C2400AD93850883850982A3F0EF33333354F8E9
:101C3400FF850883850982A3E02F783DF618F675A1
:101C4400F003A4241AF8860308E6FA08E6F97817DC
:101C5400A60308A60208A6017813A60308A602088C
:051C6400A601121D8E17
:061C69009000020203DFFF
:0614B10090FFFD1203DFB5
:1014B700120007780D860308E6FA08E6F98508831F
:1014C700850982EBF0A3EAF0A3E9F0850883850993
:1014D70082E0FBA3E0FAA3E0F990000F1200276473
:1014E70007700302159AC2AF90000C1200B445F0C2
:1014F700607A850883850982E0FBA3E0FAA3E0F917
:1015070090000C74FFF5F01200EC45F0705E90004F
:101517000E12002720E33D900013120027780A4699
:10152700F690001112002724E7F582E43400F583D2
:10153700C083C082E0FF850883850982E0FBA3E0C2
:10154700FAA3E0F9900012120027FEEF4ED082D0E6
:1015570083F08018850883850982E0FBA3E0FAA35E
:10156700E0F990000CE475F00112013985088385D4
:101577000982E0FBA3E0FAA3E0F990000312035607
:10158700850883850982EBF0A3EAF0A3E9F0D2AFDF
:031597000214D269
:06159A009000030203DFD4
:100D760090FFFD1203DFEBF0A3EAF0A3E9F090FF8A
:040D8600F81203DF7D
:100D8A00900008120403E0FBA3E0FAA3E0F9900044
:100D9A00011200279012AD93FF900004120403EF92
:100DAA00F0900004120403E0FF9012A593FE900055
:100DBA0006120403EEF0E92407F9E43AFA7E00E9A0
:100DCA002FF9EE3AFA12000EFF9012AD93FE900040
:100DDA0003120403EEF0900003120403E0FE9012E3
:100DEA00A593FD900005120403EDF090000412048F
:100DFA0003E0FD33333354F82EFE90000712040348
:100E0A00EEF0900005120403E0FEF45F1200547045
:100E1A0023900008120403E0FBA3E0FAA3E02401F4
:100E2A00F9E43AFA12000EFF900006120403E0F405
:100E3A005F120054900007120403E0FF75F003A448
:100E4A00241AF8860308E6FA08E6F985088385096C
:100E5A0082EBF0A3EAF0A3E9F0850883850982E032
:100E6A00FBA3E0FAA3E0F990000CE4F5F0120139D3
:100E7A007B007A007900C003C002C001850883851F
:100E8A000982E0FBA3E0FAA3E0F9900009120386C5
:100E9A0090000B120403E0FBA3E0FAA3E0F9900030
:100EAA000B120403EBF0A3EAF0A3E9F085088385AB
:100EBA000982E0FBA3E0FAA3E0240EF9E43AFA126D
:100ECA00000EFD90000E120403E0F45D120054853A
:100EDA000883850982E0FBA3E0FAA3E0F990000EFB
:100EEA00120027701E900006120403E0780A46F6E4
:100EFA00900004120403E024E7F582E43400F58349
:030F0A00E04EF0C6
:060F0D0090000F0203DF5B
:1013AD0090FFFD1203DFEBF0A3EAF0A3E9F085084F
:1013BD0083850982E0FBA3E0FAA3E0F9C003C00234
:1013CD00C0017813860308E6FA08E6F990000912C1
:1013DD0003867813860308E6FA08E6F990001112E1
:1013ED00002724E7F582E43400F583C083C082E052
:1013FD00FF7813860308E6FA08E6F990001212004A
:10140D0027F4FEEF5ED082D083F0700B90001312A4
:10141D000027F4780A56F67813860308E6FA08E6EC
:10142D00F9900011120027FF7E008508838509823F
:10143D00E0FBA3E0FAA3E02407F9E43AFAE92FF977
:10144D00EE3AFAC003C002C00112000EFF781386F7
:10145D000308E6FA08E6F99000121200274FD001B2
:10146D00D002D003120054850883850982E0FBA3C6
:10147D00E0FAA3E02401F9E43AFAC003C002C00186
:10148D0012000EFF7813860308E6FA08E6F99000BD
:10149D00131200274FD001D002D003120054900038
:0414AD00030203DF54
:1016710090FFFD1203DFEBF0A3EAF0A3E9F078138A
:10168100860308E6FA08E6F9900011120027FF7EAA
:1016910000850883850982E0FBA3E0FAA3E0240723
:1016A100F9E43AFAE92FF9EE3AFAC003C002C001AF
:1016B10012000EFF7813860308E6FA08E6F9900097
:1016C10012120027F45FD001D002D003120054702F
:1016D10038850883850982E0FBA3E0FAA3E02401B1
:1016E100F9E43AFAC003C002C00112000EFF7813F8
:1016F100860308E6FA08E6F9900013120027F45F62
:10170100D001D002D0031200547813860308E6FA00
:1017110008E6F990000EE41200667B007A00790079
:10172100C003C002C0017813860308E6FA08E6F98F
:0C1731009000091203869000030203DF01
:101D330090FFFD1203DFEBF0A3EAF0A3E9F090FFBD
:041D4300FD1203DFAB
:101D4700900003120403E0FBA3E0FAA3E0F990007C
:101D570001E4120066E92407F9E43AFA8508838565
:101D67000982EBF0A3EAF0A3E9F0850883850982ED
:101D7700E0FBA3E475F00112009EA9F0FAE412005B
:011D87005407
:061D88009000060203DFDB
:061A900090FFFF1203DFCE
:101A9600C2AF7816E6706B780CE67066780AE69048
:101AA60012AD93850883850982F0E0FF24E7F5826D
:101AB600E43400F583E09012AD93FEEF33333354F4
:101AC600F8FFEE2FFF783DF618E66F603508E675ED
:101AD600F003A4241AF8860308E6FA08E6F978174C
:101AE600A60308A60208A6017833120299EF24017C
:101AF600FFE43EFEE43DFDE43CFC78331202A51211
:041B06001C6FD2AFCF
:061B0A009000010203DF60
:101DE00090FFFD1203DFEBF0A3EAF0A3E9F0850812
:101DF00083850982E0F9A3E0FAA3E08508838509D9
:101E000082C9F0A3EAF0A3E9F0C2AF7837120299D1
:101E1000EF2401FFE43EFEE43DFDE43CFC78371294
:091E200002A5D2AF12000880E017
:10047F0090FFFD1203DFEBF0A3EAF0A3E9F090FF8A
:0C048F00FF1203DFEFF090FFFD1203DF0F
:10049B00C2AF7810860308E6FA08E6F9850883856B
:1004AB000982EBF0A3EAF0A3E9F0850883850982C2
:1004BB00E0FBA3E0FAA3E04A4B700302073A85087E
:1004CB0083850982E0FBA3E0FAA3E0F99000031215
:1004DB0003567810A60308A60208A601D2AF900017
:1004EB0004120403E0FBA3E0FAA3E0F9C003C0028B
:1004FB00C001850883850982E0FBA3E0FAA3E0F93C
:10050B00120307900003120403E0FF85088385099B
:10051B0082E0FBA3E0FAA3E0F990000FEF12006674
:10052B0090000EE412006690000CE4F5F012013915
:10053B00900010120403E0FBA3E0FAA3E0F9900093
:10054B0010120403EBF0A3EAF0A3E9F090000C12F5
:10055B000403E0FCA3E0FDA3E0FEA3E0FF90000C8E
:10056B001204031202B1900007120403E0FBA3E094
:10057B00FAA3E0F9900007120403EBF0A3EAF0A34F
:10058B00E9F0900013120403E0FEA3E0FF900013C8
:10059B00120403EEF0A3EFF090000A120403E0FE46
:1005AB00A3E0FF90000A120403EEF0A3EFF090001B
:1005BB0003120403E0FF131313541FFE85088385F6
:1005CB000982E0FBA3E0FAA3E0F9900011EE120020
:1005DB00669000111200279012A593900013120041
:1005EB0066EF54079000101200669000101200275F
:1005FB009012A5939000121200667B007A0079008E
:10060B00C003C002C001850883850982E0FBA3E01B
:10061B00FAA3E0F990000912038685088385098205
:10062B00E0FBA3E0FAA3E0F9121F218508838509FB
:10063B0082E0FBA3E0FAA3E0F9121EF2C2AF850839
:10064B0083850982E0FBA3E0FAA3E0F99000031293
:10065B000403E075F003A4241AF8A60308A6020805
:10066B00A601780D860308E6FA08E6F9C003C00276
:10067B00C001850883850982E0FBA3E0FAA3E0F9BA
:10068B009000031203867B007A007900C003C0023E
:10069B00C001850883850982E0FBA3E0FAA3E0F99A
:1006AB00900006120386780D860308E6FA08E64AE0
:1006BB004B6024850883850982E0FBA3E0FAA3E065
:1006CB00F9C003C002C001780D860308E6FA08E6FC
:1006DB00F9900006120386850883850982E0FBA347
:1006EB00E0FAA3E0F9780DA60308A60208F690003D
:1006FB0013120027780A46F690001112002724E700
:10070B00F582E43400F583C083C082E0FF85088363
:10071B00850982E0FBA3E0FAA3E0F9900012120036
:10072B0027FEEF4ED082D083F0D2AF7F008004D271
:03073B00AF7F4647
:06073E009000150203DF2C
:10000E00BB010689828A83E0225002E722BBFE02F0
:09001E00E32289828A83E4932223
:10002700BB010CE58229F582E5833AF583E022508E
:1000370006E92582F8E622BBFE06E92582F8E222D8
:0D004700E58229F582E5833AF583E49322F2
:10005400BB010689828A83F0225002F722BBFE018B
:02006400F32285
:10006600F8BB010DE58229F582E5833AF583E8F0D0
:10007600225006E92582C8F622BBFE05E92582C87C
:02008600F22264
:10008800C5F0F8A3E028F0C5F0F8E5821582700203
:060098001583E038F022A0
:10009E00A3F8E0C5F025F0F0E58215827002158315
:0600AE00E0C838F0E82272
:1000B400BB0110E58229F582E5833AF583E0F5F08A
:1000C400A3E0225009E92582F886F008E622BBFE67
:1000D4000AE92582F8E2F5F008E222E5832AF583AD
:0800E400E993F5F0A3E9932272
:1000EC00BB010DC58229C582C5833AC58302008830
:1000FC005011C58229F808E5F026F618F5F0E582CE
:10010C0036F622BBFE11C58229F808E225F0F5F07F
:10011C00F218E23582F222F8E58229F582E5832A8B
:0D012C00F58374019325F0F5F0E49338227B
:10013900F8BB0111E58229F582E5833AF583E8F0F8
:10014900E5F0A3F0225009E92582C8F608A6F022B5
:0D015900BBFE09E92582C8F2E5F008F2229C
:10016600E88FF0A4CC8BF0A42CFCE98EF0A42CFC38
:100176008AF0EDA42CFCEA8EF0A4CDA8F08BF0A4B6
:100186002DCC3825F0FDE98FF0A42CCD35F0FCEB15
:100196008EF0A4FEA9F0EB8FF0A4CFC5F02ECD39DA
:0F01A600FEE43CFCEAA42DCE35F0FDE43CFC2247
:1001B50075F008758200EF2FFFEE33FECD33CDCC01
:1001C50033CCC58233C5829BED9AEC99E582984084
:1001D5000CF582EE9BFEED9AFDEC99FC0FD5F0D661
:1001E500E4CEFBE4CDFAE4CCF9A88222B800C1B98B
:1001F5000059BA002DEC8BF084CFCECDFCE5F0CBC9
:10020500F97818EF2FFFEE33FEED33FDEC33FCEB01
:1002150033FB10D703994004EB99FB0FD8E5E4F9BC
:10022500FA227818EF2FFFEE33FEED33FDEC33FCA9
:10023500C933C910D7059BE99A4007EC9BFCE99A9D
:10024500F90FD8E0E4C9FAE4CCFB2275F010EF2FE2
:10025500FFEE33FEED33FDCC33CCC833C810D707E2
:100265009BEC9AE899400AED9BFDEC9AFCE899F81D
:0E0275000FD5F0DAE4CDFBE4CCFAE4C8F922B0
:10028300EB9FF5F0EA9E42F0E99D42F0EC6480C8F2
:0602930064809845F02292
:0C029900E6FC08E6FD08E6FE08E6FF2291
:0C02A500ECF608EDF608EEF608EFF62285
:0C02B100ECF0A3EDF0A3EEF0A3EFF022C0
:1002BD00D083D082E493F608740193F60874029308
:0902CD00F608740393F67404733F
:1002D600A8828583F0D083D0821202ED1202ED123D
:1002E60002ED1202EDE473E493A3C583C5F0C58362
:1002F600C8C582C8F0A3C583C5F0C583C8C582C872
:0103060022D4
:10030700BB011A89828A83D0F0D0E0F8D0E0F9D017
:10031700E0FAD0E0FBE8C0E0C0F00204585016E96C
:10032700F8D083D082D0E0F9D0E0FAD0E0FBC082E9
:10033700C083020446BBFE16E9F8D083D082D0E022
:0F034700F9D0E0FAD0E0FBC082C08302046A2242
:10035600BB010DE58229F582E5833AF58302044F58
:100366005007E92582F802043DBBFE07E92582F81D
:10037600020461E58229F582E5833AF58302047376
:10038600BB0120E58229F582E5833AF583D0F0D0DA
:10039600E0F8D0E0F9D0E0FAD0E0FBE8C0E0C0F049
:1003A6000204585018E92582F8D083D082D0E0F9AB
:1003B600D0E0FAD0E0FBC082C083020446BBFE1840
:1003C600E92582F8D083D082D0E0F9D0E0FAD0E0F7
:0903D600FBC082C08302046A220C
:1003DF00E5092582F582E5083583F583B50804859F
:1003EF0082092210AF06858209F50822858209F558
:0403FF0008D2AF224F
:0D040300E5092582F582E5083583F58322A1
:10041000EC8EF0A4CCC5F0CCCDF8EFA4CEC5F02D79
:10042000FDE43CFCE8A42EC8C5F03DFDE43CFCEF37
:0D043000A4FFE5F028FEE43DFDE43CFC22C5
:09043D00E6FB08E6FA08E6F922E4
:09044600EBF608EAF608E9F622DB
:09044F00E0FBA3E0FAA3E0F922AE
:09045800EBF0A3EAF0A3E9F022A5
:09046100E2FB08E2FA08E2F922CC
:09046A00EBF208EAF208E9F222C3
:0C047300E493FB740193FA740293F922E5
:00000001FF
