:1002B8005000083F065B4F666D7D077F6F777C397E
:1002C8005E7971480000EFDFBF7FFEFDFBF7C100DC
:0602D800011800011900ED
:03000B00020300ED
:10030000C0E0C0D00518E518B4050505197518003A
:0D031000E519B41003751900D0D0D0E0320B
:0300C3000202DF57
:1002DF00C0E0C083C082C0BA43BA8090FE82E030D3
:1002EF00E606E054BFF0C200D0BAD082D083D0E08F
:0102FF0032CC
:10000E00E4F50BF50AF509F508F50FF50EF50DF506
:10001E000CF513F512F511F51012035E120336E40A
:10002E00FBFD7F0612039012027AE4F50BF50AF53A
:10003E0009F508E47F08FEFDFCAB0BAA0AA909A886
:10004E0008C31200C650E37400250BF582E4340099
:10005E00F583E0FDC005AF19EF3395E0FEFDFCEF33
:10006E00250BFFEE350AFEED3509FDEC3508FCE4F7
:10007E007B10FAF9F812023674082BF58274003AE6
:10008E00F583E0FBD0057F0212039612027AE4FAA2
:10009E00F9F8E50B2401F50BEA350AF50AE93509FD
:0900AE00F509E83508F508808A1F
:0F035E00E4F58AF58C538E3FF589D28CD2A92213
:1003360075BA8090FE8074C8F090FE82E4F090FE5C
:07034600817480F0D2AF22A8
:0C00B700D20090FE817481F02000FD2238
:10034D0090FE86EFF0D20090FE817482F02000FDC9
:01035D00227D
:0C036D00D20090FE817483F02000FD227D
:10027A00E4F517F516F515F514E47F2C7E01FDFC5F
:10028A00AB17AA16A915A814C31200C6501F00005E
:10029A000000E4FAF9F8E5172401F517EA3516F52E
:0D02AA0016E93515F515E83514F51480CC6E
:0102B7002224
:0C037900D20090FE817486F02000FD226E
:0B0385001200B77F4012034D02036D11
:0600030012034D02036D23
:10031D00AE07AC03120385AF06120003AF0512033F
:03032D0030AF04EA
:0603300012034D02036DF3
:0603900012031D020379B7
:0603960012031D020379B1
:030000000201AA50
:0C01AA00787FE4F6D8FD7581200201F199
:10023600C2D5E830E70FB2D5E4C39BFBE49AFAE4F3
:1002460099F9E498F8EC30E717B2D512026C12016E
:1002560018E4C39BFBE49AFAE499F9E498F880035E
:1002660012011830D50DE4C39FFFE49EFEE49DFD08
:04027600E49CFC22E6
:1000C600EB9FF5F0EA9E42F0E99D42F0EC6480C8B1
:0600D60064809845F02251
:1001B60002000EE493A3F8E493A34003F68001F251
:1001C60008DFF48029E493A3F85407240CC8C3334A
:1001D600C4540F4420C8834004F456800146F6DF19
:1001E600E4800B01020408102040809002B8E47EEF
:1001F600019360BCA3FF543F30E509541FFEE4930E
:10020600A360010ECF54C025E060A840B8E493A3D4
:10021600FAE493A3F8E493A3C8C582C8CAC583CAFF
:10022600F0A3C8C582C8CAC583CADFE9DEE780BEB7
:0102DE00001F
:1000DC0075F008758200EF2FFFEE33FECD33CDCCDB
:1000EC0033CCC58233C5829BED9AEC99E58298405E
:1000FC000CF582EE9BFEED9AFDEC99FC0FD5F0D63B
:10010C00E4CEFBE4CDFAE4CCF9A88222B800C1B964
:10011C000059BA002DEC8BF084CFCECDFCE5F0CBA2
:10012C00F97818EF2FFFEE33FEED33FDEC33FCEBDB
:10013C0033FB10D703994004EB99FB0FD8E5E4F996
:10014C00FA227818EF2FFFEE33FEED33FDEC33FC83
:10015C00C933C910D7059BE99A4007EC9BFCE99A77
:10016C00F90FD8E0E4C9FAE4CCFB2275F010EF2FBC
:10017C00FFEE33FEED33FDCC33CCC833C810D707BC
:10018C009BEC9AE899400AED9BFDEC9AFCE899F8F7
:0E019C000FD5F0DAE4CDFBE4CCFAE4C8F9228A
:00000001FF
