:050006000108FFC180AC
:0300030002000CEC
:03000C00C20032FD
:030013000200B731
:0F00B700C28A2000FDD20015088508E8D28A32DF
:1000A20075B80175B701D288D2A8D28AD2AAD2AFC6
:0500B20075E8FF80FE6F
:03000000020016E5
:0C001600787FE4F6D8FD75812002005DC3
:100022000200A2E493A3F8E493A34003F68001F252
:1000320008DFF48029E493A3F85407240CC8C333DF
:10004200C4540F4420C8834004F456800146F6DFAE
:10005200E4800B0102040810204080900006E47E38
:10006200019360BCA3FF543F30E509541FFEE493A3
:10007200A360010ECF54C025E060A840B8E493A36A
:10008200FAE493A3F8E493A3C8C582C8CAC583CA95
:10009200F0A3C8C582C8CAC583CADFE9DEE780BE4D
:01000B0000F4
:00000001FF
