:1000030012007EE4FF1200697F007E081200607D0B
:10001300007C077F007E011200367D807C007F809C
:100023007E0712004512007012007712008612003C
:030033008280FECA
:04007E0075BA8022AD
:0700690090FFF2E04FF022CE
:0900600090FFF0EEF0A3EFF02296
:0F00360090FF00EEF0A3EFF0A3ECF0A3EDF022AB
:0F00450090FF10EEF0A3EFF0A3ECF0A3EDF0228C
:0700700090FF047480F022F0
:0700770090FF147480F022D9
:0400820075FE802265
:04008600E4F5BA22C1
:03000000020054A7
:0C005400787FE4F6D8FD758107020003F8
:00000001FF
