:10000300E4F5E8F50BF50AF509F5087F3F7E427D37
:100013000F7C00AB0BAA0AA909A808C31200B050B1
:1000230017E50B2401F50BE4350AF50AE43509F568
:1000330009E43508F50880D375E8FFE4F50BF50A04
:10004300F509F5087F3F7E427D0F7C00AB0BAA0AC2
:10005300A909A808C31200B05017E50B2401F50B3A
:10006300E4350AF50AE43509F509E43508F50880AD
:10007300D3E4F5E8F50BF50AF509F5087F3F7E4271
:100083007D0F7C00AB0BAA0AA909A808C31200B014
:100093005017E50B2401F50BE4350AF50AE435099D
:0C00A300F509E43508F50880D375C76046
:0100AF00222E
:030000000200C13A
:0C00C100787FE4F6D8FD75810B02000387
:1000B000EB9FF5F0EA9E42F0E99D42F0E89C45F0A6
:0100C000221D
:00000001FF
