:060C730025312E3466005D
:0C0C49000411000000000408000000007E
:03002B00020A8E38
:100A8E00C0E0C0F0C083C082C0D075D000C000C02E
:0D0A9E0001C002C003C004C005C006C007AF
:100AAB0075220053BCDF120BF28F148E138D128C38
:100ABB00117526FF75270C7528738F2C8E2B8D2A9D
:100ACB008C297B007A00790C12067BAF0BAE0AAD3A
:100ADB0009AC08AB14AA13A912A8111201D4602CEB
:100AEB0085140B85130A8512098511087F0D120CCD
:100AFB006B7F0A120C6B752200740C2522F8E6FF33
:0F0B0B00120C6B0522E522C3940540ED120C94E9
:100B1A00D007D006D005D004D003D002D001D0002F
:0B0B2A00D0D0D082D083D0F0D0E032D9
:100BC1007D01E4FF120C8BE4FFFE120C1C120C7968
:100BD100120C617F01120C567F0F120C85D2ADD21F
:100BE100AF120C90120C397F01120C7F120C948001
:010BF100FE05
:050C8B008F928D912203
:100C1C00EF2420F5D7EF2420FFEE34FEFEE434FF62
:0D0C2C00FDE434FFFC78081205D58FD622B8
:080C6B003099FDC2998F992216
:060C7900E4F5BDF5BE220A
:040C900075BC80228D
:040C940043BC4022FB
:0F0C3900E4FFFE000FBF00010EBE27F7BF10F44F
:010C48002289
:060C7F00EF540F42BC22FD
:0B0C5600EF700453DEDF2243DE20229B
:060C8500EF540F42DE22D5
:0A0C610075985A758E14438E012217
:100BF200AFBDEFFEADBE7C00E42DFFEC3EFEAD07C7
:100C0200FCE4120252E4FBFA7920784012002EE44E
:090C1200FBFA79807845120137E4
:010C1B0022B6
:10002E00EC4D6011E8497017ED33EC3304600DE4CC
:10003E00FCFFFEFD22E933E8330470F80202C01221
:10004E00028B58046009E4CC248150062850090222
:10005E0002CA2840030202C7C0E0EB4A7044B980CE
:10006E0006D0E0FB0202B6EF4E701CBD8008EBFF1F
:10007E00EAFEE9FD80EBE98DF0A4FEE5F002011742
:10008E00E9CDF9EAFEEBFFEF89F0A4FCE5F0CE89AD
:10009E00F0A42EFFE435F0CD89F0A42DFEE435F06A
:1000AE008067EF4E7005BD80D780C3EF8BF0A4AC98
:1000BE00F0EE8BF0A42CFCE435F0F8EF8AF0A42CD3
:1000CE00E5F038FCE433CB8DF0A42CFCE5F03BF8E6
:1000DE00EE8AF0A42CFCE5F038F8E433CF89F0A4D6
:1000EE002CFCE5F038CF3400CE89F0A42FFFE5F0DC
:1000FE003EFEE433C98DF0A42EFEE5F039CD8AF034
:10010E00A42FFFE5F03EFEE43DFD33D0E0FB5007AB
:10011E000BBB000F0202CAEC2CFCEF33FFEE33FEDA
:06012E00ED33FD0202A208
:100134000202CAEC5D046005E8590470030202C0BF
:1001440012028B580460F6EC4860F2EC7004FDFE79
:10015400FF22C860DB2481C85009C398600250069E
:100164000202C79850CAF582E9294B4A7005AB824E
:100174000202B675F0007C1A7880C3EF9BEE9AED0C
:1001840099400DC3EF9BFFEE9AFEED99FDE842F016
:10019400DC23ACF0D0E0FFD0E0FED0E0FDAB822069
:1001A400E7101BEB60BAEC2CFCEF33FFEE33FEEDF3
:1001B40033FD0202A2E803F830E705C0F075F00051
:1001C400EF2FFFEE33FEED33FD40B830E7C280AAD7
:1001D40074F8CC6480CCC86480C8F58204604FC3D2
:1001E400EB9FF5F0EA9E42F0E99D42F0E89C45F071
:1001F400603C501DE5825FFFE582D313CB5BCBF4FB
:100204002B5582FB50280ABA002409B90020088023
:100214001DE5825BFBE582D313CF5FCFF4C3132FBD
:100224005582FF50090EBE00050DBD00010CC3EB45
:100234009FF5F0EA9E42F0E99D42F0E89C45F060AB
:0902440007CC4820E701B3EC22CD
:10024D0075F020800E75F010800575F0087D007E2C
:10025D00007F003392D530D5031205C7EC33401023
:10026D00EF33FFEE33FEED33FDEC33FCD5F0ED2235
:0E027D00E5F0247EA2D513CC92E7CDCEFF2271
:10061F00E53A2426F8E6053A2278233007027826B1
:10062F00E475F0011205E902056F2000EB7F2ED271
:10063F00008018EF540F2490D43440D4FF30040BB3
:10064F00EF24BFB41A0050032461FFE53B6002158D
:10065F003B053EE53E7002053D30070D7823E475FE
:10066F00F0011205E9EF0205B50200037403D2078A
:10067F008003E4C207F53A8B238A248925E4F53BEE
:10068F00F53DF53EE53B60077F2012065A80F57574
:10069F003CFFC201C200C202C203C205C206C208A9
:1006AF00120628FF700D3007057F0012066BAF3E54
:1006BF00AE3D22B4255FC2D5C204120628FF24D056
:1006CF00B40A00501A75F00A783B30D50508B6FF0A
:1006DF000106C6A426F620D5047002D20380D924C1
:1006EF00CFB41A00EF5004C2E5D204020958D20168
:1006FF0080C6D20080C0D20280BCD2D580BAD205CB
:10070F0080B47F2012065A2002077401B53B0040C7
:10071F00F112061FFF12065A020693D208D2068064
:10072F009512061FFB12061FFA12061FF94A4B708D
:10073F0006794F7A0A7BFF20022EE53B602A7E0066
:10074F008E8275830012058860060EEE653C70F090
:10075F00C2D5EBC0E0EAC0E0E9C0E0EE1209B8D0C4
:10076F00E0F9D0E0FAD0E0FB12056FFF60AAEBC012
:10077F00E0EAC0E0E9C0E012065AD0E02401F9D067
:10078F00E03400FAD0E0FBE53C0460DCD53CD980D6
:10079F0087D20280A212099B60F7E53C7001041218
:1007AF0002D5A93C600DE53C600914F53C120A42E4
:1007BF00EF60F3EA30E702F404C3995077EAF425C7
:1007CF003C0430E701E404F53C800D12099B60C145
:1007DF00EA053C253C1202D5EA7839F630E701E408
:1007EF00253C04D53C04200501141209B8E4C0E0EF
:1007FF00120A427839E6601320E70714F612064210
:10080F00802204F6D0E014C0E07F00120642E53CDF
:10081F006007120639153C800B300503120639D0DC
:10082F00E0020693D0E00480C512099B60A0E53C6E
:10083F00041202D57839EAF6E53C2005026001047E
:05084F0024041209B8A9
:1008540074FF04C0E0120A42120642E53C2005027D
:100864006003120639D0E0B53CE87F4512064C78A7
:1008740039E67F2B30E7047F2DF404C0E012065ADA
:10088400D0E075F00A84C0F0120643D0E0120643AB
:10089400020693791080027908C206C2088008D241
:1008A400D5790A8004790AC2D5E53C047002F53C86
:1008B400E4FAFDFEFF12061FFC7B0820011312065A
:1008C4001FFD7B1030000A12061FFE12061FFF7B5D
:1008D40020EC3382D592D55013C3E43000069FFF39
:1008E400E49EFEE42001039DFDE49CFCE4CBF8C2FD
:1008F40001EC700CCFCECDCCE824F8F870F380175F
:10090400C3EF33FFEE33FEED33FDEC33FCEB33FB8F
:10091400994002FB0FD8E9EB300105F8D0E0C44858
:10092400B201C0E00AEC4D4E4F78207B0070C2EA61
:10093400B53C0040BCC0E01209BAD0F0D0E02001C0
:1009440004C4C0E0C4B201C0F0120643D0F0D5F034
:10095400EB0206931205F907305308975807014C28
:1009640006FD42089B4F08A34408A3490716430801
:10097400A95507DA4608384507A4470A6F50070502
:100984002D07092E072C2B070D23072A200A582A86
:1009940006C54800000724E53CB4FF03753C061275
:1009A400061FFC12061FFD12061FFE12061FFF780B
:1009B40032020304790AA2D5200314300509B910C0
:1009C400020404B9080104A2D5200602500104203F
:1009D40002689202B53B005034C0E07F2030031916
:1009E4007F30A20272067205500F120A11C202C2AF
:1009F40006C205C2087F30800F300503E9C0E0124B
:100A0400065A300503D0E0F9D0E0B53BCC300517E9
:100A14007F30B9100C12065A7F583004077F788053
:100A240003B9080312065A3002057F2D02065A7FC5
:100A3400202008F87F2B2006F322920280CF7F002B
:100A4400B4070050052432F8E6FF22286E756C6C5A
:100A54002900D20112061F3001F8C201783B30D5BB
:100A64000108F60206C52D5043495812061F2403F7
:100A7400B405004001E4900A6A9312064B743A12DA
:0A0A8400064BD203753B04020897ED
:10028B00E9D2E7C933E833F892D5EDD2E7CD33ECB9
:07029B0033FC5002B2D52232
:1002A200EC30E7100FBF000C0EBE00080DBD0004BD
:1002B2000BEB6014A2D5EB13FCED92E7FD2274FF69
:1002C200FCFDFEFF22E480F8A2D574FF13FC7D80C2
:0302D200E480EFD6
:1002D500F920E72824F950037907E4F42402FB18F0
:1002E500DBFDE624FB5014E9600DE4F618E604F6A0
:0F02F500B40A08E4F6D9F57401F60A22C2D5223C
:10030400ED33EC3392D5FA602AB4FF33EDC2E77BC8
:10031400FF60067A037929E4227A03793220D5042E
:100324007A03792D224E614E002B494E46002D4909
:100334004E4600E47A08F608DAFC7B00740722E8EB
:10034400C0E0ECC0E0EDC0E0EEC0E0EFC0E0EA7574
:10035400F010A4CAABF075F04DA42BFBE435F0FC0F
:10036400EA2410FAEB34C5FBEC34D9FCEDC2E7FF08
:1003740075F056A4F42411C5F0F434C58FF0A42A02
:10038400E5F03BE43CF620E71412052FD0E0FFD063
:10039400E0FED0E0FDD0E0FC1201378014F404123A
:1003A400052FD0E0FFD0E0FED0E0FDD0E0FC12004D
:1003B4002ED0E0F8E6FAEDD2E7CD33EC332482FB1D
:1003C400E4C3CF33CFCE33CECD33CD33DBF37B0792
:1003D40075F00A846004F6081B0AE5F0F6088FF04D
:1003E400740AA4FFACF08EF0740AA42CFEACF05096
:1003F400010C8DF0740AA42CFDE435F0F608DBDE64
:0304040074072258
:100407000202C0E86480F8E933E83360110460F061
:10041700ED33EC337009E8FCE9FDEAFEEBFF22045B
:1004270060DED3EB9FEA9EE99DE8C2E78CF0C2F756
:1004370095F0400CE8CCF8E9CDF9EACEFAEBCFFB22
:1004470012028B85D0F05804700320D5B3E80470EE
:10045700075002B2D50202CA92D5EC0460F7E4CC89
:10046700C0E0C398F8603B94186008400DD0E0FBEB
:100477000202A2E4FBFAC9FC8028E830E406E4C9DA
:10048700FBE4CAFCE830E305E4C9CACBFCE854073F
:100497006010F8C3E913F9EA13FAEB13FBEC13FC4A
:1004A700D8F130F52FC3E49CFCEF9BFFEE9AFEEDED
:1004B70099FDD0E0FBEF4E4D4C701222DB03020298
:1004C700C7EC2CFCEF33FFEE33FEED33FDED30E7E9
:1004D700EB0202A2EF2BFFEE3AFEED39FDD0E0FB77
:1004E70050130BBB00030202CAED13FDEE13FEEF20
:0804F70013FFEC13FC0202A24A
:1004FF003F8000004120000042C80000447A000005
:10050F00461C400047C35000497424004B18968086
:10051F004CBEBC205A0E1BCA6753C21C749DC5AE7D
:10052F00FB60065407601C232312055DEB543860F3
:10053F000912054912055812002EECF8EDF9EEFAE2
:10054F00EFCB22EB12055880F1543803241C900492
:10055F00FFFE93FC0EEE93FD0EEE930ECE93FF2255
:03000000020B35BB
:0C0B3500787FE4F6D8FD75813E020B7C51
:10056F00BB010689828A83E0225002E722BBFE028A
:09057F00E32289828A83E49322BD
:10058800BB010CE58229F582E5833AF583E0225028
:1005980006E92582F8E622BBFE06E92582F8E22272
:0D05A800E58229F582E5833AF583E493228C
:1005B500BB010689828A83F0225002F722BBFE0125
:0205C500F3221F
:0E05C700C3E49FFFE49EFEE49DFDE49CFC2245
:1005D500E86010ECA2E713FCED13FDEE13FEEF133C
:0405E500FFD8F02229
:1005E900FAE6FB0808E6F925F0F618E6CA3AF62213
:1005F900D083D082F8E4937012740193700DA3A391
:1006090093F8740193F5828883E4737402936860A4
:06061900EFA3A3A380DFA4
:10000300EFB40A07740D12000E740A309811A89900
:10001300B8130CC2983098FDA899C298B811F6305D
:0700230099FDC299F5992235
:100B4100020BC1E493A3F8E493A34003F68001F2FE
:100B510008DFF48029E493A3F85407240CC8C333B5
:100B6100C4540F4420C8834004F456800146F6DF84
:100B7100E4800B0102040810204080900C49E47EBF
:100B8100019360BCA3FF543F30E509541FFEE49379
:100B9100A360010ECF54C025E060A840B8E493A340
:100BA100FAE493A3F8E493A3C8C582C8CAC583CA6B
:100BB100F0A3C8C582C8CAC583CADFE9DEE780BE23
:010C5500009E
:00000001FF
