:0A020E000814FEFDFBF7EFDFBF7FD1
:0801A4007F507EC37D007C004A
:0801AC008F0F8E0E8D0D8C0CDF
:1001B400E4F513F512F511F510F513F512F511F533
:1001C40010AF0FAE0EAD0DAC0CAB13AA12A911A853
:1001D40010C31201F8501C00E4FAF9F8E5132401E5
:1001E400F513EA3512F512E93511F511E83510F574
:0301F4001080CEAA
:0101F70022E5
:10000300E4F508F509F50AF50BE4F508F50975E8D3
:10001300AA1201A475E8551201A40509E5097002A5
:100023000508C3940AE5086480948040E1E4F50878
:10003300F509E4F50AF50B7414250BF8E6F5E81257
:1000430001A4050BE50B7002050AC39408E50A64D5
:1000530080948040E20509E50970020508C3940A0B
:10006300E5086480948040CAE4F508F50975E8FF63
:100073001201A4E4F5E87F507EC3FDFC1201AC0538
:1000830009E50970020508C3940AE50864809480B1
:1000930040DBE4F508F50975E8FFAE08AF09EE3378
:1000A30095E0FDFC1201ACE4F5E8C374E89509FFA3
:1000B30074039508FE3395E0FDFC1201AC0509E5D8
:1000C3000970020508C394E8E5086480948340C777
:1000D300E4F508F509C3E50994E8E5086480948329
:1000E300400302000CE4F5E8AE08AF09EE3395E0F7
:1000F300FDFC1201AC75E8FFC374E89509FF7403B6
:100103009508FE3395E0FDFC1201AC0509E5097085
:05011300C4050880C0D6
:03000000020118E2
:0C011800787FE4F6D8FD75811B02015FC2
:1001F800EB9FF5F0EA9E42F0E99D42F0EC6480C87E
:0602080064809845F0221D
:10012400020003E493A3F8E493A34003F68001F2EE
:1001340008DFF48029E493A3F85407240CC8C333DC
:10014400C4540F4420C8834004F456800146F6DFAB
:10015400E4800B010204081020408090020EE47E2B
:10016400019360BCA3FF543F30E509541FFEE493A0
:10017400A360010ECF54C025E060A840B8E493A367
:10018400FAE493A3F8E493A3C8C582C8CAC583CA92
:10019400F0A3C8C582C8CAC583CADFE9DEE780BE4A
:0102180000E5
:00000001FF
