:100003001200C67F0F1200A37FFF7E0B12009A7DA2
:10001300FF7C087F7F7E0B1200527DFF7C0B7F7F6E
:100023007E021200617DFF7C027F7F7E05120070DD
:100033007DFF7C057F7F7E0812007F1200AA1200DD
:0F004300B11200B81200BF1200CE1200CA80FE28
:0400C60075BA802265
:0700A30090FFF2E04FF02294
:09009A0090FFF0EEF0A3EFF0225C
:0F00520090FF10EEF0A3EFF0A3ECF0A3EDF0227F
:0F00610090FF30EEF0A3EFF0A3ECF0A3EDF02250
:0F00700090FF50EEF0A3EFF0A3ECF0A3EDF02221
:0F007F0090FF70EEF0A3EFF0A3ECF0A3EDF022F2
:0700AA0090FF147480F022A6
:0700B10090FF347480F0227F
:0700B80090FF547480F02258
:0700BF0090FF747480F02231
:0400CA0075FE80221D
:0100D200220B
:0400CE00E4F5BA2279
:0300000002008E6D
:0C008E00787FE4F6D8FD758107020003BE
:00000001FF
