:03002200010800D2
:03003B00020003BD
:10000300C0E0C0D0C2DF8508FA8508EAE508C394DA
:0F001300FF500405088003750800D0D0D0E032FC
:1000CA0075A220E4F5D8F5E9F5F975D903F5F275C5
:0E00DA00EA1075FA1075DA42D2DED2AF80FE5F
:0300000002003EBD
:0C003E00787FE4F6D8FD7581080200858B
:10004A000200CAE493A3F8E493A34003F68001F202
:10005A0008DFF48029E493A3F85407240CC8C333B7
:10006A00C4540F4420C8834004F456800146F6DF86
:10007A00E4800B0102040810204080900022E47EF4
:10008A00019360BCA3FF543F30E509541FFEE4937B
:10009A00A360010ECF54C025E060A840B8E493A342
:1000AA00FAE493A3F8E493A3C8C582C8CAC583CA6D
:1000BA00F0A3C8C582C8CAC583CADFE9DEE780BE25
:0100250000DA
:00000001FF
